:100000000C94D8020C9400030C9400030C9400038D
:100010000C9400030C9400030C9400030C94000354
:100020000C9400030C9400030C9400030C94000344
:100030000C9400030C9400030C9400030C94000334
:100040000C94661A0C9400030C94D3190C94AD19FB
:100050000C9400030C9400030C9400030C94000314
:100060000C9400030C9400030900537570706F72B8
:1000700074696E672074686520666F6C6C6F776951
:100080006E67206D6F6465733A20007E7E7E7E7E93
:100090007E7E7E7E7E7E7E7E7E7E7E7E7E7E7E7E80
:1000A0007E7E7E7E7E7E7E7E7E7E7E7E7E7E7E7E70
:1000B0007E00486176652061206E69636520646119
:1000C000792E0063203078303037424646200920B0
:1000D0003A2073657420636F6C6F7220746F2030E8
:1000E000783030374246460073203C6E3E2009206F
:1000F0003A2073657420737065656420746F203CCA
:100100006E3E00732D2009203A206465637265619C
:10011000736520737065656400732B2009203A2095
:10012000696E6372656173652073706565640062F2
:10013000203C6E3E2009203A20736574206272696B
:100140006768746E65737320746F203C6E3E006246
:100150002D2009203A206465637265617365206211
:1001600072696768746E65737300622B2009203AA8
:1001700020696E6372656173652062726967687475
:100180006E657373006D203C6E3E2009203A20732B
:10019000656C656374206D6F6465203C6E3E005530
:1001A000736167653A0000666320006620003000D6
:1001B00030003000300030003078006320006320D1
:1001C0000020006D200073200073200044656372DE
:1001D00065617365642073706565642062792031A0
:1001E0003020746F3A2000732D00496E6372656190
:1001F00073656420737065656420627920313020F6
:10020000746F3A2000732B00622000622000446566
:1002100063726561736564206272696768746E6594
:10022000737320627920323520746F3A2000622D7A
:1002300000496E6372656173656420627269676804
:10024000746E65737320627920323520746F3A20A2
:1002500000622B0000000000240027002A0000009C
:100260000008000201000003040700000000000075
:100270000000010204081020408001020408102040
:1002800001020408102000000000250028002B00B7
:10029000040404040404040402020202020203032C
:1002A0000303030349435500547269636F6C6F7213
:1002B000204368617365004269636F6C6F7220430D
:1002C000686173650043697263757320436F6D6283
:1002D0007573747573004669726520466C69636B4B
:1002E00065722028696E74656E73652900466972AF
:1002F0006520466C69636B65722028736F6674298C
:10030000004669726520466C69636B6572004861DE
:100310006C6C6F7765656E004D657272792043680D
:10032000726973746D61730046697265776F726B81
:10033000732052616E646F6D0046697265776F72EB
:100340006B7300436F6D6574004C6172736F6E2048
:100350005363616E6E65720052756E6E696E6720D2
:1003600052616E646F6D0052756E6E696E672052D9
:10037000656420426C75650052756E6E696E67200B
:10038000436F6C6F7200436F6C6F722053776565BB
:10039000702052616E646F6D004368617365204226
:1003A0006C61636B6F7574205261696E626F770068
:1003B000436861736520426C61636B6F75740043C1
:1003C00068617365205261696E626F772057686952
:1003D000746500436861736520466C6173682052E0
:1003E000616E646F6D00436861736520466C617374
:1003F00068004368617365205261696E626F7700BF
:1004000043686173652052616E646F6D004368617B
:10041000736520436F6C6F7200436861736520578A
:100420006869746500426C696E6B205261696E6226
:100430006F77004D756C7469205374726F6265003C
:100440005374726F6265205261696E626F770053F8
:1004500074726F62650048797065722053706172C2
:100460006B6C6500466C61736820537061726B6CD5
:100470006500537061726B6C65005477696E6B6CCC
:100480006520466164652052616E646F6D0054772B
:10049000696E6B6C652046616465005477696E6BAC
:1004A0006C652052616E646F6D005477696E6B6C81
:1004B000650052756E6E696E67204C69676874736B
:1004C00000546865617465722043686173652052E9
:1004D00061696E626F77005468656174657220436C
:1004E000686173650046616465004475616C205302
:1004F00063616E005363616E005261696E626F7773
:10050000204379636C65005261696E626F77004DBC
:10051000756C74692044796E616D69630053696E0E
:10052000676C652044796E616D69630052616E6429
:100530006F6D20436F6C6F7200436F6C6F7220574A
:100540006970652052616E646F6D00436F6C6F72ED
:100550002057697065205265766572736520496E13
:10056000766572736500436F6C6F722057697065B2
:10057000205265766572736500436F6C6F72205709
:1005800069706520496E766572736500436F6C6FA4
:100590007220576970650042726561746800426C30
:1005A000696E6B0053746174696300006A2AB72531
:1005B00011241FBECFEFD8E0DEBFCDBF11E0A0E019
:1005C000B1E0EAE7F7E602C005900D92AA32B10762
:1005D000D9F724E0AAE2B1E001C01D92A03AB20727
:1005E000E1F712E0C7EDD2E004C02197FE010E94BE
:1005F0008C31C63DD107C9F70E94CB250C94B0338E
:100600000C9400002F923F924F925F926F927F92D4
:100610008F929F92AF92BF92CF92DF92EF92FF9212
:100620000F931F93CF93DF93EC017C0148E9E41A09
:100630004EEFF40AF7011081FC014EE0149FE00D2B
:10064000F11D1124EA5CFD4F6081718182819381EB
:1006500029E030E040E050E00E94CA302B013C012C
:10066000FE0184E1189FE00DF11D1124E758FE4FB3
:10067000A080B18084E1982EF7018081E82FF0E01E
:100680008E01989E000D111D1124D801A558BE4F52
:10069000CD90DC901197CA14DB0478F0F801E5598D
:1006A000FE4F2081318142815381B501CE010E94EC
:1006B0001C1D9FEFA91AB90ADFCF14978D919C9149
:1006C000119712962D903C909601221933092F5FB5
:1006D0003F4F48E0441651046104710409F45EC0C0
:1006E00040FC7DC04EE04E9FC0014F9F900D1124F5
:1006F000FE01E80FF91FEE5CFD4F80809180A28023
:10070000B380C501B4016F5F7F4F8F4F9F4F40E0B3
:1007100050E00E94CA302B013C01F801E358FE4F23
:1007200080818823C9F0B601681979092FEF3FEF5E
:100730004FEF50E0CE010E941C1DF7018081FE01A9
:1007400044E1489FE00DF11D1124E558FE4F608102
:1007500071816419750918C0B101680D791D2FEFF9
:100760003FEF4FEF50E0CE010E941C1DF70180814A
:10077000FE0144E1489FE00DF11D1124E758FE4FB2
:1007800060817181640D751D2FEF3FEF4FEF50E0D9
:10079000CE010E941C1D04E110E023C0B9010E949B
:1007A00064318B014EE04E9FC0014F9F900D11248C
:1007B000C80FD91FCE5CDD4F88819981AA81BB818A
:1007C000BC01CD016F5F7F4F8F4F9F4F40E050E0E6
:1007D0000E94CA30688379838A839B8302C00EE1BA
:1007E00010E0C801DF91CF911F910F91FF90EF9022
:1007F000DF90CF90BF90AF909F908F907F906F9041
:100800005F904F903F902F9008952F923F924F927C
:100810005F926F927F928F929F92AF92BF92CF9290
:10082000DF92EF92FF920F931F93CF93DF93CDB799
:10083000DEB72A970FB6F894DEBF0FBECDBF1C01FE
:100840002A013B01480159019C0128593E4F3A8732
:100850002987D9018C91F101BEE08B9FE00DF11D3C
:100860001124EE5CFD4F208131813A832983F1010F
:1008700024E1289FE00DF11D1124FC83EB83E55852
:10088000FE4F208131813E832D83EB81FC81E7582F
:10089000FE4F0190F081E02D2F5F3F4F2E1B3F0B4D
:1008A00089819A810196B9010E9464318C01019677
:1008B000B9010E94643198878F838B819C81835812
:1008C0009E4FDC018C91882389F16D817E81E981C5
:1008D000FA816E1B7F0BA3019201C1010E941C1DB6
:1008E000A985BA858C91F101B4E1B89FE00DF11DA5
:1008F0001124E558FE4F60817181601B710BA501C9
:100900009401C1010E941C1DE985FA858081F101D5
:1009100024E1289FE00DF11D1124E558FE4F608170
:1009200071818F819885681B790B2EC069817A81CE
:100930006E0F7F1FA3019201C1010E941C1DA9859A
:10094000BA858C91F101B4E1B89FE00DF11D11243D
:10095000E758FE4F60817181600F711FA5019401FE
:10096000C1010E941C1DE985FA858081F10124E105
:10097000289FE00DF11D1124E758FE4F6081718121
:100980008F819885680F791FA7019601C1010E9488
:100990001C1DA985BA858C916101B4E18B9FC00CA7
:1009A000D11C1124F601E558FE4FE080F180EFEFF5
:1009B000EE1AFE0AF601E758FE4F20813181E21A55
:1009C000F30AFEE08F9F200C311C11242EEC221A1A
:1009D0002DEF320AF10180819181A281B381BC01A6
:1009E000CD016F5F7F4F8F4F9F4F970140E050E0E9
:1009F0000E94CA30D1016D937D938D939C93139780
:100A0000F601E958FE4F80819181B7010E9464315F
:100A1000CB012A960FB6F894DEBF0FBECDBFDF9193
:100A2000CF911F910F91FF90EF90DF90CF90BF90EB
:100A3000AF909F908F907F906F905F904F903F907E
:100A40002F900895CF92DF92EF92FF920F931F9312
:100A5000FC01E859FE4F2081FC0134E1239FE00DA9
:100A6000F11D1124E559FE4F00811181228133814E
:100A7000680179014FEF5FEF6FEF70E00E940504AE
:100A80001F910F91FF90EF90DF90CF900895CF923C
:100A9000DF92EF92FF920F931F93FC01E859FE4FF4
:100AA0002081FC0134E1239FE00DF11D1124E55963
:100AB000FE4F4081518162817381C12CD12C76011E
:100AC00000E010E098010E9405041F910F91FF9033
:100AD000EF90DF90CF900895CF92DF92EF92FF9248
:100AE0000F931F93FC01E859FE4F2081FC0134E174
:100AF000239FE00DF11D1124E559FE4F40815181E6
:100B000062817381CC24CA94DC2CEC2CF12C0FEF85
:100B10001FEF2FEF30E00E9405041F910F91FF900F
:100B2000EF90DF90CF900895CF92DF92EF92FF92F7
:100B30000F931F93FC01E859FE4F2081AC0134E173
:100B4000239F400D511D1124FA01ED58FE4FC08026
:100B5000D180E280F380349700811181228133813A
:100B6000349740815181628173810E9405041F91F5
:100B70000F91FF90EF90DF90CF9008958F929F920A
:100B8000AF92BF92EF92FF920F931F93CF93DF9399
:100B9000EC018C0108591E4FF8018081FE0124E10F
:100BA000829FE00DF11D1124E758FE4FE080F18097
:100BB00054E1952EF8018081A82EB12C9E01989EBB
:100BC000200D311D1124F901E558FE4F80819181DE
:100BD0008E159F0558F020E030E0A901B701CE0145
:100BE0000E941C1D3FEFE31AF30AE4CF3497E08024
:100BF000F180C7016AE070E00E9464316F5F7F4F4F
:100C0000660F771F8EE08A9DF0018B9DF00D1124F9
:100C1000EC0FFD1FEE5CFD4F80819181A281B381BD
:100C20004B01A12CB12C88159905AA05BB0528F00C
:100C3000C7010E9464317B012FC080FD2AC0F901E9
:100C4000E758FE4FE080F18034E1B32EF801808157
:100C50009E01B89E200D311D1124C901F901E558EE
:100C6000FE4F208131812E153F0578F0FC01E559BA
:100C7000FE4F2081318142815381B701CE010E9414
:100C80001C1DFFEFEF1AFF0AE1CF24E1E22EF12C49
:100C900003C092E3E92EF12CF80180818E01FEE081
:100CA0008F9F000D111D11240E5C1D4FF8018080D7
:100CB0009180A280B380FFEF8F1A9F0AAF0ABF0A0C
:100CC00024E1829FC00DD11D1124C958DE4F8881B7
:100CD00099816AE070E00E9464319B01220F331F0A
:100CE0002D5F3F4F40E050E0C501B4010E94CA3083
:100CF000F8016083718382839383C701DF91CF9171
:100D00001F910F91FF90EF90BF90AF909F908F90A9
:100D10000895CF92DF92EF92FF920F931F93CF939C
:100D2000DF93EC018C0108591E4FF80180819EE091
:100D3000C92EDE01C89EA00DB11D1124A25CBD4FBD
:100D400024E1D22EFE01D89EE00DF11D1124E758BA
:100D5000FE4F6D917C9180819181680F791F20E019
:100D600030E0A901CE010E941C1DF8018081E82E0F
:100D7000F12C9E01D89E200D311D1124F901E5585A
:100D8000FE4F608171816F5F7F4F329780819181CB
:100D9000681B790B80E090E00E948919CE9CF001DD
:100DA000CF9CF00D1124EC0FFD1FE25CFD4F718311
:100DB0006083F8016081CE01D69E800D911D1124C3
:100DC000FC01E559FE4F2081318142815381DE01D2
:100DD000C69EA00DB11D1124A25CBD4F3E966D9123
:100DE0007C9180819181680F791FCE010E941C1D2A
:100DF000F8018081D89EC00DD11D1124FE01E95853
:100E0000FE4FDE01A558BE4F6D917C916F5F7F4F05
:100E1000C758DE4F88819981681B790B8081918149
:100E20000E946431CB01DF91CF911F910F91FF9010
:100E3000EF90DF90CF9008954F925F926F927F92E4
:100E40008F929F92AF92BF92CF92DF92EF92FF92DA
:100E50000F931F93CF93DF93EC014A015B018C0149
:100E600008591E4FF8018081282F30E0FE019EE0D6
:100E7000899FE00DF11D1124EE5CFD4F8081918171
:100E8000A281B381892B8A2B8B2B09F06BC084E163
:100E9000829FF001839FF00D1124EC0FFD1FE75896
:100EA000FE4FE080F18034E1732EF8018081C82E7E
:100EB000D12C9E01789E200D311D1124F901E55899
:100EC000FE4F208131812E153F0558F020E030E0A3
:100ED000A901B701CE010E941C1DEFEFEE1AFE0A18
:100EE000E4CF329780819181281B390B2F5F3F4FD0
:100EF0002530310538F0C90165E070E00E946431A9
:100F0000AB0105C041E050E02230310520F0B901CD
:100F10007695679502C061E070E0CB01A0E0B0E09B
:100F20002A01612C712C481659066A067B0664F466
:100F3000BC01CD0164197509860997090E948919B8
:100F4000460E571E681E791E8EE08C9DF0018D9D09
:100F5000F00D1124EC0FFD1FEE5CFD4F408251821D
:100F600062827382F801808194E1D92E9E01D89E1D
:100F7000200D311D1124F901E758FE4FE080F1806A
:100F80003296608171816F5F7F4F6E197F0980E0BB
:100F900090E00E9489196E0D7F1DA5019401CE017C
:100FA0000E941C1DF8012081FE013EE0239FE00D00
:100FB000F11D1124EE5CFD4F80819181A281B381EE
:100FC0000197A109B10980839183A283B383D29E43
:100FD000C00DD11D1124FE01E958FE4FDE01A558B8
:100FE000BE4F6D917C916F5F7F4FC758DE4F8881F8
:100FF0009981681B790B808191810E946431CB01BA
:10100000DF91CF911F910F91FF90EF90DF90CF90E4
:10101000BF90AF909F908F907F906F905F904F9018
:101020000895FC01E859FE4F2081FC0134E1239F23
:10103000E00DF11D1124E559FE4F4081518162817F
:1010400073810C941C07DF92EF92FF920F931F9312
:10105000CF93DF93EC017C0128E9E21A2EEFF20A2C
:10106000F7012081F4E12F9F800D911D1124FC01D7
:10107000E758FE4F00811181FE013EE0239FE00D05
:10108000F11D1124EE5CFD4FDC01A558BE4F8D9182
:101090009C910196801B910B880F991F0397A0E0EC
:1010A000B0E0408151816281738184179507A60762
:1010B000B70720F4108211821282138244E1D42EE9
:1010C000F7012081822F90E0AE01D29E400D511D8C
:1010D0001124FA01E558FE4F408151814017510714
:1010E00050F020E030E0A901B801CE010E941C1DA3
:1010F0000F5F1F4FE5CF3297608171812EE0289FEF
:10110000F001299FF00D1124EC0FFD1FEE5CFD4F47
:1011100000811181060F171F041B150B17FF03C059
:1011200011950195110924E1D22ED89EF001D99E86
:10113000F00D1124EC0FFD1FE559FE4F2081318188
:1011400042815381600F711FCE010E941C1DF70167
:1011500080819E01D89E200D311D1124F901E55991
:10116000FE4F20813181428153817096608171816F
:10117000601B710BCE010E941C1DF7012081FE0136
:101180003EE0239FE00DF11D1124EE5CFD4F8081B8
:101190009181A281B3810196A11DB11D80839183AC
:1011A000A283B383D29EC00DD11D1124FE01E95844
:1011B000FE4FDE01A558BE4F6D917C916F5F7F4F52
:1011C000C758DE4F88819981681B790B660F771F9E
:1011D000808191810E946431CB01DF91CF911F9179
:1011E0000F91FF90EF90DF900895AF92BF92DF9242
:1011F000EF92FF920F931F93CF93DF93EC017C014B
:1012000038E9E31A3EEFF30AF7012081F4E12F9F5A
:10121000800D911D1124FC01E758FE4F00811181C2
:10122000FE013EE0239FE00DF11D1124EE5CFD4F19
:10123000DC01A558BE4F8D919C910196801B910BAE
:10124000880F991F0397A0E0B0E04081518162812F
:10125000738184179507A607B70720F410821182BF
:101260001282138294E1D92EF7018081282F30E079
:10127000AE01D89E400D511D1124FA01E558FE4FD4
:10128000A080B180A016B10650F020E030E0A901A6
:10129000B801CE010E941C1D0F5F1F4FE5CF329792
:1012A000608171818EE0829FF001839FF00D112497
:1012B000EC0FFD1FEE5CFD4F80819181860F971F23
:1012C0008A199B0997FF03C0919581959109A4E123
:1012D000A29FF001A39FF00D1124EC0FFD1FDF0171
:1012E000A358BE4F2C91E559FE4F222341F0208197
:1012F000318142815381B501681B790B06C0208181
:10130000318142815381680F791FCE010E941C1DDB
:10131000F7012081FE013EE0239FE00DF11D112425
:10132000EE5CFD4F80819181A281B3810196A11D68
:10133000B11D80839183A283B38344E1249FC00DB8
:10134000D11D1124FE01E958FE4FDE01A558BE4F04
:101350006D917C916F5F7F4FC758DE4F8881998177
:10136000681B790B660F771F808191810E94643121
:10137000CB01DF91CF911F910F91FF90EF90DF9004
:10138000BF90AF9008953F924F925F926F927F927D
:101390008F929F92AF92BF92CF92DF92EF92FF9285
:1013A0000F931F93CF93DF93EC013E2C4C0188E900
:1013B000881A8EEF980AF4018081FE019EE0899FD1
:1013C000E00DF11D1124EE5CFD4FC080D180E28064
:1013D000F380DE01E4E18E9FA00DB11D1124FD011B
:1013E000E558FE4F808191813297A080B180FC0149
:1013F0003196EA19FB092F01612C712CA358BE4FBD
:10140000C414D504E604F70478F42C91222331F0B7
:101410008C199D099A01AB01BC011BC0CA0CDB1CD5
:101420009A01AB01B60115C0C418D508E608F70843
:101430004C91442319F0311007C002C0332021F031
:10144000BC016C197D0903C0B5016C0D7D1DA9019E
:101450009801CE010E941C1DF40180817E01F4E1FF
:101460008F9FE00CF11C1124F701E558FE4F00811D
:1014700011810F5F1F4F329720813181021B130BA7
:10148000000F111F9EE0899FC00DD11D1124CE5C5D
:10149000DD4F88819981AA81BB81BC01CD016F5F3D
:1014A0007F4F8F4F9F4F980140E050E00E94CA301D
:1014B000688379838A839B83F701E958FE4F808193
:1014C0009181B8010E946431CB01DF91CF911F91CE
:1014D0000F91FF90EF90DF90CF90BF90AF909F90D3
:1014E0008F907F906F905F904F903F900895EF9214
:1014F0000F931F93FC01E859FE4F2081AC0134E1AA
:10150000239F400D511D1124FA01E559FE4F008122
:1015100011812281338134964081518162817381AE
:10152000EE24E3940E94C3091F910F91EF90089558
:10153000EF920F931F93FC01E859FE4F2081AC01FD
:1015400034E1239F400D511D1124FA01E159FE4F52
:1015500000811181228133813497408151816281E0
:101560007381EE24E3940E94C3091F910F91EF90C1
:101570000895EF920F931F93FC01E859FE4F2081CD
:10158000AC0134E1239F400D511D1124FA01E559AE
:10159000FE4F008111812281338134964081518137
:1015A00062817381E12C0E94C3091F910F91EF901A
:1015B0000895EF920F931F93FC01E859FE4F20818D
:1015C000AC0134E1239F400D511D1124FA01E15972
:1015D000FE4F0081118122813381349740815181F6
:1015E00062817381E12C0E94C3091F910F91EF90DA
:1015F00008958F929F92AF92BF92CF92DF92EF9217
:10160000FF920F931F93CF93DF93EC019E2C5C010D
:1016100088E9A81A8EEFB80AD501FC918F2F90E0C7
:101620007E01BEE0FB9FE00CF11C1124F701EA5C97
:10163000FD4FE081E0FF03C06801790102C06A014B
:101640007B01A4E1A89FF001A99FF00D1124EC0FEC
:10165000FD1FE358FE4FE081EE2351F0C416D5067E
:10166000E606F70619F06A017B0102C068017901FC
:1016700024E1289FF001299FF00D1124EC0FFD1F9C
:10168000E758FE4F0081118134E1832EF5018081FE
:10169000482F50E09E01889E200D311D1124C90164
:1016A000F901E558FE4F208131812017310748F0BC
:1016B000A7019601B801CE010E941C1D0F5F1F4FAC
:1016C000E5CF6EE0649F9001659F300D1124C20F3D
:1016D000D31FCA5CDD4F288120FD06C0911010C0C9
:1016E00034978081918109C0FC01E958FE4F8081C7
:1016F0009181992011F0449705C09695879502C075
:1017000084E190E0DF91CF911F910F91FF90EF90D6
:10171000DF90CF90BF90AF909F908F900895EF9201
:101720000F931F93FC01E859FE4F2081AC0134E177
:10173000239F400D511D1124FA01E159FE4F0081F4
:10174000118122813381349740815181628173817B
:10175000EE24E3940E94F90A1F910F91EF900895EF
:10176000EF920F931F93FC01E859FE4F2081AC01CB
:1017700034E1239F400D511D1124FA01E159FE4F20
:1017800000811181228133813497408151816281AE
:101790007381E12C0E94F90A1F910F91EF90089537
:1017A000DF92EF92FF920F931F93CF93DF938C0101
:1017B0007C0188E9E81A8EEFF80AF7018081F801C8
:1017C00094E1899FE00DF11D1124E758FE4FC0817F
:1017D000D18184E1D82EF70180819801D89E200D17
:1017E000311D1124F901E558FE4F808191818C173C
:1017F0009D0768F0F901E559FE4F20813181428152
:101800005381BE01C8010E941C1D2196E4CF84EFC4
:1018100091E0DF91CF911F910F91FF90EF90DF90BA
:1018200008959F92AF92BF92CF92DF92EF92FF9274
:101830000F931F93CF93DF93EC018C0108591E4F38
:10184000F8018081FE0124E1829FE00DF11D112449
:10185000E758FE4FE080F18024E1D22EF80180812C
:101860009E01D89E200D311D1124C901F901E558B2
:10187000FE4F208131812E153F0578F0FC01E5599E
:10188000FE4F2081318142815381B701CE010E94F8
:101890001C1D3FEFE31AF30AE1CF0E942D2F25E034
:1018A00030E040E050E00E94EC306230710581058C
:1018B0009105ECF5E12CF12C84E1982E93E0A92E12
:1018C000B12CF80180819E01989E200D311D1124BC
:1018D000F901E758FE4FC080D18032966081718156
:1018E0006F5F7F4F9B012C193D092330310528F094
:1018F000C901B5010E94643102C061E070E0E616E2
:10190000F70690F4B90180E090E00E9489196C0D0F
:101910007D1D2FEF3FEF4FEF50E0CE010E941C1DC9
:101920003FEFE31AF30ACDCF84E190E00BC0F8015A
:101930008081F4E18F9FC00DD11D1124C958DE4F65
:1019400088819981DF91CF911F910F91FF90EF9046
:10195000DF90CF90BF90AF909F900895CF92DF928D
:10196000EF92FF920F931F93CF93DF93EC018C01C3
:1019700008591E4FF8018081282F30E0FE019EE0BB
:10198000899FE00DF11D1124EA5CFD4F808191815A
:10199000A281B381892B8A2B8B2B09F474C0F801A7
:1019A000608194E1D92ECE01D69E800D911D112427
:1019B000FC01E559FE4F20813181428153817EE057
:1019C000C72EDE01C69EA00DB11D1124A25CBD4F25
:1019D0003E966D917C9180819181680F791FCE0137
:1019E0000E941C1D0E942D2F25E030E040E050E0B9
:1019F0000E94EC30F8012081672B682B692B09F0DD
:101A000070C0E22EF12CCE01D29E800D911D1124CA
:101A1000FC01E558FE4F608171816F5F7F4F329707
:101A200080819181681B790B80E090E00E94891988
:101A3000CE9CF001CF9CF00D1124EC0FFD1FE25C59
:101A4000FD4F71836083F8018081DE01C89EA00D87
:101A5000B11D1124A25CBD4FFE01D89EE00DF11D09
:101A60001124E758FE4F6D917C9180819181680F20
:101A7000791F2FEF3FEF4FEF50E0CE010E941C1D6A
:101A800084E190E036C084E1829FF001839FF00DF5
:101A90001124EC0FFD1FE758FE4FE080F18084E138
:101AA000D82EF80180819E01D89E200D311D112471
:101AB000C901F901E558FE4F208131812E153F05FE
:101AC00008F46DCFFC01E559FE4F20813181428140
:101AD0005381B701CE010E941C1DFFEFEF1AFF0AD0
:101AE000E0CFD29EC00DD11D1124C958DE4F888190
:101AF0009981DF91CF911F910F91FF90EF90DF902F
:101B0000CF900895FC01E859FE4F2081FC0134E19B
:101B1000239FE00DF11D1124E559FE4F40815181B5
:101B2000628173810C940D252F923F924F925F92A8
:101B30006F927F928F929F92AF92BF92CF92DF92DD
:101B4000EF92FF920F931F93CF93DF9300D000D0BB
:101B50001F92CDB7DEB79D838C8388599E4F9A83A1
:101B60008983FC018081E82EF12CEC81FD812EE03F
:101B7000829FE00DF11D1124EE5CFD4FA081B1812B
:101B80005F97B7FF03C0B195A195B109B195A19534
:101B9000B109AA0FBB1FDF96EC81FD818789882ED2
:101BA000912CA12CB12C8A3118F42401350105C0E7
:101BB00059E1452E512C612C712CA5019401241959
:101BC0003509460957090E94163120E430E040E00B
:101BD00050E00E94EC30240D351D461D571D64E178
:101BE0006E9DC0016F9D900D11240C811D81080F09
:101BF000191FF801E559FE4F4080518062807380C3
:101C00006901330FEE08FF08672D7727882799278A
:101C1000A70196010E94BA30A50194010E94CA3022
:101C2000222EA62DB0E0A70196010E940B31A5013E
:101C300094010E94CA302B83A52DB0E0A701960124
:101C40000E940B31A50194010E94CA30322EA42DAE
:101C5000B0E0A70196010E940B31A50194010E94FA
:101C6000CA30F22EF801E758FE4FC080D18044E11F
:101C7000B42EE981FA818081282F30E04C815D818A
:101C8000B89E400D511D1124FA01E558FE4F808188
:101C900091818C159D0598F0EC81FD818281938165
:101CA000C816D90640F4E22C0F2D232D4B81B60126
:101CB000CF010E94B01AFFEFCF1ADF0ADACF6EE031
:101CC000629FC001639F900D11242C813D81820F82
:101CD000931FFC01EE5CFD4F80819181A281B38155
:101CE0000196A11DB11D8F739927AA27BB27808359
:101CF0009183A283B383FA01E958FE4F80819181D9
:101D000026E0969587952A95E1F70F900F900F9012
:101D10000F900F90DF91CF911F910F91FF90EF9057
:101D2000DF90CF90BF90AF909F908F907F906F90FB
:101D30005F904F903F902F900895EF92FF920F93F6
:101D40001F93CF93DF931F92CDB7DEB78C017B013A
:101D5000FB01608169830E94A4306981681719F0D2
:101D6000C8010E94AC30C7010F90DF91CF911F9145
:101D70000F91FF90EF900895FF920F931F93CF93D1
:101D8000DF9300D0CDB7DEB7FF24F39481E391E079
:101D90000E941F18892B61F181E391E00E94FD17D9
:101DA0008A3019F4F0922A01F1CF89831A820091C6
:101DB000DA011091DB010F5F1F4FB80186ED91E052
:101DC0000E94F218882311F32091D6013091D70197
:101DD0008091DA019091DB01BE016F5F7F4F820F2E
:101DE000931F0E949B331093DB010093DA01CECF47
:101DF0000F900F90DF91CF911F910F91FF90089559
:101E00002F923F924F925F926F927F928F929F920A
:101E1000AF92BF92CF92DF92EF92FF920F931F93F8
:101E2000CF93DF93EC014A015B0128013901E12CDA
:101E3000F12C6C0188E9C81A8EEFD80A84E1282EAB
:101E40009EE0392EF6018081082F10E0FE01289EC9
:101E5000E00DF11D1124DF01A558BE4F6D917C915D
:101E6000119712972D913C91CB010196AC01421B29
:101E7000530BE416F506D0F5309ED001319EB00D1F
:101E80001124AC0FBD1FAE5CBD4F8D919D910D9087
:101E9000BC91A02D8E0D9F1DA11DB11D8370992792
:101EA000AA27BB27E358FE4F0297A105B10560F4AE
:101EB0008081882321F0B701620F731F02C06E1961
:101EC0007F09A50194010BC08081882321F0B7010F
:101ED000620F731F02C06E197F09A3019201CE0128
:101EE0000E941C1DEFEFEE1AFE0AACCF2EE0209FE1
:101EF000C001219F900D1124C80FD91FCE5CDD4F6A
:101F000088819981AA81BB810196A11DB11D837031
:101F10009927AA27BB2788839983AA83BB83E9587B
:101F2000FE4F80819181BA010E946431CB01DF9123
:101F3000CF911F910F91FF90EF90DF90CF90BF90C6
:101F4000AF909F908F907F906F905F904F903F9059
:101F50002F9008950F931F93FC01E859FE4F2081A5
:101F6000FC0134E1239FE00DF11D1124E559FE4FE2
:101F700040815181628173810FEF1FEF2FEF30E0BD
:101F80000E94000F1F910F910895DF92EF92FF9230
:101F90000F931F93CF93DF938C017C0188E9E81A9C
:101FA0008EEFF80AF7018081F80194E1899FE00D36
:101FB000F11D1124E758FE4FC081D18134E1D32EA9
:101FC000F7018081F801D89EE00DF11D1124E5583C
:101FD000FE4F808191818C179D07B0F0BE01C80132
:101FE0000E94F61BDC01CB01B695A79597958795C6
:101FF0009C01AD012F773F774F775F77BE01C80116
:102000000E941C1D2196DCCFDF91CF911F910F9173
:10201000FF90EF90DF9008958F929F92AF92BF92C2
:10202000EF92FF920F931F93CF93DF93EC014A013E
:102030005B010E94C50F0E942D2F23E030E040E09D
:1020400050E00E94EC308E0108591E4F672B682B20
:10205000692BF9F4F80180819E0144E1849F200DF1
:10206000311D1124F901E758FE4FE080F1803296CE
:10207000608171816F5F7F4F6E197F0980E090E012
:102080000E9489196E0D7F1DA5019401CE010E9449
:102090001C1DF8018081F4E18F9FC00DD11D11241A
:1020A000C958DE4F8881998123E0969587952A95B6
:1020B000E1F7DF91CF911F910F91FF90EF90BF90CB
:1020C000AF909F908F900895FC01E859FE4F2081BA
:1020D000FC0134E1239FE00DF11D1124E559FE4F71
:1020E00040815181628173810C940C10CF92DF92F8
:1020F000EF92FF92CF93DF93C12CD12C7601D39432
:10210000C62FD0E00E942D2FA70196010E94EC302F
:10211000862FAE01461B510957FF03C051954195CB
:102120005109942F9095491708F4942F9A3250F33F
:10213000DF91CF91FF90EF90DF90CF9008950F93B4
:102140001F93262F20952535B0F40DEF0203A00133
:10215000112441505F4F052E000C660B770BBA011E
:102160005527442713E0219FC0011124092E000C9C
:10217000AA0BBB0B34C02A3AC0F425551DEF12033D
:10218000B001112461507F4FAB01770F660B770BC5
:1021900033E0239FC0011124092E000CAA0BBB0BB6
:1021A000BA2FA92F982F88271AC02A5A1DEF120379
:1021B000A001112441505F4F052E000C660B770BD8
:1021C000762F652F542F442733E0239FC00111241D
:1021D000092E000CAA0BBB0BDC01992788278A016A
:1021E0009B01082B192B2A2B3B2BC901B8011F91EE
:1021F0000F9108952F923F924F925F926F927F922C
:102200008F929F92AF92BF92CF92DF92EF92FF9206
:102210000F931F93CF93DF9300D000D000D0CDB7A2
:10222000DEB79E838D8388599E4F9A838983DC0114
:102230008C91ED81FE81BEE08B9FE00DF11D11249C
:10224000EA5CFD4F608171818281938129E030E0F9
:1022500040E050E00E94CA304B015C01E12CF12CBF
:10226000E981FA818081082F10E02D803E80FEE018
:10227000F89F200C311C112461012EECC21A2DEFA5
:10228000D20AD6014D905D906D907C90C701A0E080
:10229000B0E084159505A605B70510F5F101E25CDF
:1022A000FD4F60818D819E810E949F109B01AC013A
:1022B00084E1809FF001819FF00D1124AD81BE81EA
:1022C000EA0FFB1FE758FE4F80819181B701680F2D
:1022D000791FCD010E941C1DBFEFEB1AFB0AC0CF76
:1022E000B4E1B09FC001B19F900D1124ED81FE813A
:1022F0008E0F9F1FFC01E758FE4F208131813C83E8
:102300002B833296208131812F5F3F4F4B815C813F
:10231000241B350B349780819181B9010E9464316F
:102320008B01C301B2016F5F7F4F8F4F9F4F40E022
:1023300050E00E94CA30A8E08A169104A104B104BA
:1023400009F455C06B017C010B811C81040D151D26
:1023500080FC24C02FEF3FEF4FEF50E0B8018D819C
:102360009E810E941C1DE981FA818081ED81FE81A0
:1023700024E1289FE00DF11D1124E758FE4F6081F4
:1023800071816C0D7D1D2FEF3FEF4FEF50E08D8180
:102390009E810E941C1D04E110E041C0F101E25C3D
:1023A000FD4F60818D819E810E949F109B01AC0139
:1023B000B8018D819E810E941C1DA981BA818C91DA
:1023C000ED81FE81B4E1B89FE00DF11D1124E758C5
:1023D000FE4F608171816C0D7D1D20E030E0A90110
:1023E0008D819E810E941C1D0EE110E018C0F60137
:1023F0006083718382839383672B682B692B79F4C5
:102400007101F2ECEF1AFDEFFF0AD7016C918D819B
:102410009E810E94761090E0F70191838083C8012D
:1024200026960FB6F894DEBF0FBECDBFDF91CF91D9
:102430001F910F91FF90EF90DF90CF90BF90AF90E2
:102440009F908F907F906F905F904F903F902F90D4
:102450000895CF92DF92EF92FF920F931F93CF9345
:10246000DF93EC01FC01E859FE4F208134E1239F0A
:10247000800D911D1124FC01E558FE4F6081718192
:102480006F5F7F4F329780819181681B790B80E06D
:1024900091E00E946431CE013EE0239F800D911DAA
:1024A0001124FC01EE5CFD4F208134968081269F33
:1024B000800D1124682FCE010E949F10AB01BC013A
:1024C000C12CD12C760100E010E09801CE010E94D1
:1024D0000504DF91CF911F910F91FF90EF90DF9056
:1024E000CF900895CF92DF92EF92FF920F931F93B8
:1024F000CF93DF93EC01FC01E859FE4F208134E1DA
:10250000239F800D911D1124FC01E558FE4F608131
:1025100071816F5F7F4F329780819181681B790B4A
:1025200080E091E00E946431CE013EE0239F800D67
:10253000911D1124FC01EE5CFD4F208134968081B9
:10254000269F800D1124682FCE010E949F10AB01A1
:10255000BC01CC24CA94DC2CEC2CF12C0FEF1FEF27
:102560002FEF30E0CE010E940504DF91CF911F9143
:102570000F91FF90EF90DF90CF9008954F925F9270
:102580006F927F92AF92BF92CF92DF92EF92FF92C3
:102590000F931F93CF93DF935C01FC01E859FE4F2B
:1025A00020813EE0239F800D911D1124FC01EE5CF3
:1025B000FD4FC080D180E280F380A50164E1269FB9
:1025C000400D511D1124FA01E558FE4FC081D18103
:1025D0002196329720813181C21BD30BFC01EA5C2A
:1025E000FD4F10819C2D8827BE010E946431610F30
:1025F000C5010E949F102B013C01C701B6016F5F0E
:102600007F4F8F4F9F4F9E0140E050E00E94CA30A5
:10261000962F8827BE010E946431610FC5010E9478
:102620009F106B017C01930182014FEF5FEF6FEF11
:1026300070E0C5010E940504DF91CF911F910F91B9
:10264000FF90EF90DF90CF90BF90AF907F906F9012
:102650005F904F900895CF92DF92EF92FF920F9389
:102660001F93CF93DF93EC017C0188E9E81A8EEF8A
:10267000F80AF70180818E01FEE08F9F000D111D89
:102680001124F801EE5CFD4F80819181A281B3811C
:10269000892B8A2B8B2B59F4025C1D4FF80160812A
:1026A000CE010E94761090E0F80191838083F701BB
:1026B0008081FE019EE0899FE00DF11D1124E25C06
:1026C000FD4F6081CE010E949F10AB01BC01CC2464
:1026D000CA94DC2CEC2CF12C0FEF1FEF2FEF30E025
:1026E000CE010E940504DF91CF911F910F91FF90C1
:1026F000EF90DF90CF900895CF93DF93EC010E948D
:102700002D2F20E031E040E050E00E94EC30CE017F
:102710000E949F10AB01BC01CE01DF91CF910C94C0
:102720000C10CF93DF93EC010E942D2F20E031E0BD
:1027300040E050E00E94EC30CE010E949F10AB01BF
:10274000BC01CE01DF91CF910C941C07CF93DF9396
:10275000EC01FC01E859FE4F8081FE019EE0899F5B
:10276000E00DF11D1124EE5CFD4F80819181A2816D
:10277000B3810196A11DB11DBC01CD01772788272A
:1027800099276083718382839383CE010E949F1077
:10279000AB01BC01CE01DF91CF910C940D258F923E
:1027A0009F92AF92BF92CF92DF92EF92FF920F93E0
:1027B0001F93CF93DF93EC01C12CD12C00E010E0EC
:1027C0005C0188E9A81A8EEFB80A84E1982E9EE091
:1027D000892EF5018081E82FF0E0AE01989E400D32
:1027E000511D1124DA01A758BE4FED90FC901197AE
:1027F00012966D917C916F5F7F4F6E197F0906175E
:102800001707F0F4C6010E9464318E9EC0018F9EAE
:10281000900D1124FE01E80FF91FEE5CFD4F808141
:10282000680FCE010E949F109B01AC01B8016E0D94
:102830007F1DCE010E941C1D0F5F1F4FD394C9CF77
:102840008EE08E9F90018F9F300D1124FE01E20FCC
:10285000F31FEE5CFD4F80819181A281B3810196CF
:10286000A11DB11D9927AA27BB2780839183A2832D
:10287000B383FA01E958FE4F818190E0DF91CF9157
:102880001F910F91FF90EF90DF90CF90BF90AF908E
:102890009F908F9008958F929F92AF92BF92DF92F8
:1028A000EF92FF920F931F93CF93DF93EC017C0184
:1028B00088E9E81A8EEFF80AF7018081082F10E006
:1028C000FE019EE0899FE00DF11D1124EE5CFD4F9D
:1028D0006081CE010E949F104B015C0184E1809FCA
:1028E000F001819FF00D1124EC0FFD1FE758FE4F02
:1028F0000081118184E1D82EF7018081282F30E0FA
:10290000AE01D89E400D511D1124FA01E558FE4F2D
:10291000808191818017910748F0A5019401B80149
:10292000CE010E941C1D0F5F1F4FE6CF6EE0629F1D
:10293000C001639F900D1124C80FD91FCE5CDD4FDD
:1029400088819981AA81BB810196A11DB11D99271A
:10295000AA27BB2788839983AA83BB833497818165
:1029600090E0DF91CF911F910F91FF90EF90DF905A
:10297000BF90AF909F908F9008958F929F92AF924B
:10298000BF92DF92EF92FF920F931F93CF93DF934B
:10299000EC017C0128E9E21A2EEFF20AF7018081AE
:1029A000FE0124E1829FE00DF11D1124E758FE4F46
:1029B0000081118184E1D82E812C912C54019394B3
:1029C000F70180819E01D89E200D311D1124F9014F
:1029D000E558FE4F408151814017510790F00E9409
:1029E0002D2FA50194010E94EC30CE010E949F1072
:1029F0009B01AC01B801CE010E941C1D0F5F1F4F4F
:102A0000DFCF349780819181DF91CF911F910F911A
:102A1000FF90EF90DF90BF90AF909F908F900895C0
:102A20006F927F928F929F92AF92BF92CF92DF92DE
:102A3000FF920F931F93CF93DF9300D000D0CDB7B9
:102A4000DEB73C018C0108591E4FF8018081282F08
:102A500030E0F3016EE0869FE00DF11D1124EA5C89
:102A6000FD4F80819181A281B381892B8A2B8B2B91
:102A700009F450C00E942D2F20E031E040E050E0EA
:102A80000E94EC30C3010E949F109B01AC01F80131
:102A9000808164E1F62EB301F89E600D711D112452
:102AA000FB01E758FE4FC080D18032968081918132
:102AB00001968C199D09BC0180E090E029833A833E
:102AC0004B835C830E9489196C0D7D1D29813A819D
:102AD0004B815C81C3010E941C1DF8018081F89E1E
:102AE000600C711C1124F301E958FE4F8081918123
:102AF0000F900F900F900F90DF91CF911F910F913A
:102B0000FF90DF90CF90BF90AF909F908F907F907D
:102B10006F90089584E1829FF001839FF00D11244E
:102B2000E60DF71DE758FE4FC080D18084E1F82EF6
:102B3000812C912C54019394F8018081F301F89E2B
:102B4000E00DF11D1124E558FE4F808191818C1517
:102B50009D0508F48FCF0E942D2FA50194010E949E
:102B6000EC30C3010E949F109B01AC01B601C30170
:102B70000E941C1DFFEFCF1ADF0ADECF9F92AF929B
:102B8000BF92CF92DF92EF92FF920F931F93CF935A
:102B9000DF93EC018C0108591E4FF80180819EE003
:102BA000D92E7E01D89EE00CF11C1124F2ECEF1A14
:102BB000FDEFFF0AF7016081CE010E94761090E0E0
:102BC000F70191838083F8018081A82EB12CFE014A
:102BD000D89EE00DF11D1124E25CFD4F6081CE0115
:102BE0000E949F106B017C0184E18A9DF0018B9D06
:102BF000F00D1124EC0FFD1FE758FE4FA080B180AF
:102C000024E1922EF80180819E01989E200D311DB5
:102C10001124F901E558FE4F208131812A153B0529
:102C200050F0A7019601B501CE010E941C1DFFEFD7
:102C3000AF1ABF0AE7CF349780819181DF91CF919E
:102C40001F910F91FF90EF90DF90CF90BF90AF90CA
:102C50009F900895EF92FF920F931F93CF93DF936E
:102C6000EC017C0128E9E21A2EEFF20AF7018081DB
:102C70008E01FEE08F9F000D111D1124F801EE5C06
:102C8000FD4F9E0144E1849F200D311D1124D90187
:102C9000A558BE4F2D913C9111972F5F3F4F129732
:102CA0008D919C91281B390B40E050E0608171812F
:102CB000828193810E94CA30672B682B692B59F45B
:102CC000025C1D4FF8016081CE010E94761090E0F9
:102CD000F80191838083F7018081FE012EE0829FBD
:102CE000E00DF11D1124E25CFD4F6081CE010E94D8
:102CF0009F10AB01BC01EE24E3948A019B01CE013D
:102D00000E94C309880F991FDF91CF911F910F91E6
:102D1000FF90EF900895EF92FF920F931F93CF9340
:102D2000DF93EC017C0128E9E21A2EEFF20AF701A9
:102D300080818E01FEE08F9F000D111D1124F8018E
:102D4000EE5CFD4F9E0144E1849F200D311D112456
:102D5000D901A558BE4F2D913C9111972F5F3F4F40
:102D600012978D919C91281B390B40E050E06081B7
:102D70007181828193810E94CA30672B682B692BF5
:102D800059F4025C1D4FF8016081CE010E9476105B
:102D900090E0F80191838083F7018081FE012EE0AD
:102DA000829FE00DF11D1124E25CFD4F6081CE0198
:102DB0000E949F10AB01BC01E12C8A019B01CE0156
:102DC0000E94C309880F991FDF91CF911F910F9126
:102DD000FF90EF9008958F929F92AF92BF92EF92E3
:102DE0000F931F93CF93DF93EC01FC01E859FE4F43
:102DF0008081FE0194E1899FE00DF11D1124E159CC
:102E0000FE4F80809180A280B380FE019EE0899F6A
:102E1000E00DF11D1124EA5CFD4F6081CE010E949E
:102E20009F10AB01BC01EE24E39495018401CE0117
:102E30000E94F90ADF91CF911F910F91EF90BF90FF
:102E4000AF909F908F9008958F929F92AF92BF9274
:102E5000EF920F931F93CF93DF93EC01FC01E8599E
:102E6000FE4F8081FE0194E1899FE00DF11D112448
:102E7000E159FE4F80809180A280B380FE019EE0E8
:102E8000899FE00DF11D1124EA5CFD4F6081CE01A8
:102E90000E949F10AB01BC01E12C95018401CE0181
:102EA0000E94F90ADF91CF911F910F91EF90BF908F
:102EB000AF909F908F900895CF93DF93EB010E9486
:102EC000A4308883CE01DF91CF910895AF92BF9255
:102ED000CF92DF92EF92FF920F931F93CF93DF93E6
:102EE00000D0CDB7DEB78091F3018983BE016F5F5B
:102EF0007F4F80E090E00E949D0E80914503898382
:102F0000BE016F5F7F4F81E090E00E949D0E06E161
:102F100010E0C12CD12C8091450390E0C816D90651
:102F20000CF5780184E1E81AF108F801E05DFC4F46
:102F30005F01F50161915F01C7016A830E94A430BE
:102F40006A81681719F0C7010E94AC30FFEFEF1AD1
:102F5000FF0AE016F10669F78FEFC81AD80A0C5E6F
:102F60001F4FD9CF0F900F90DF91CF911F910F91ED
:102F7000FF90EF90DF90CF90BF90AF900895CF92E9
:102F8000DF92EF92FF920F931F93CF93DF936C0129
:102F90007A018B01C0E0D0E0CE15DF0589F0D801C1
:102FA0006D918D01D601ED91FC910190F081E02DA4
:102FB000C6010995892B11F47E0102C02196ECCF40
:102FC000C701DF91CF911F910F91FF90EF90DF909C
:102FD000CF900895089580E090E00895FC01538D0E
:102FE000448D252F30E0842F90E0821B930B5417E3
:102FF00010F0CF96089501970895FC01918D828D70
:10300000981761F0828DDF01A80FB11D5D968C913C
:10301000928D9F5F9F73928F90E008958FEF9FEF47
:103020000895FC01918D828D981731F0828DE80F03
:10303000F11D858D90E008958FEF9FEF0895FC01BD
:10304000918D228D892F90E0805C9F4F821B91098A
:103050008F739927089581E391E00E941F1821E062
:10306000892B09F420E0822F0895FC01848DDF0173
:10307000A80FB11DA35ABF4F2C91848D90E00196EB
:103080008F739927848FA689B7892C93A089B189DA
:103090008C9180648C93938D848D981306C00288E4
:1030A000F389E02D80818F7D80830895EF92FF92D8
:1030B0000F931F93CF93DF93EC0181E0888F9B8D5B
:1030C0008C8D981305C0E889F989808185FD24C01D
:1030D000F62E0B8D10E00F5F1F4F0F731127E02EA0
:1030E0008C8DE8120CC00FB607FCFACFE889F9897D
:1030F000808185FFF5CFCE010E943518F1CF8B8DF1
:10310000FE01E80FF11DE35AFF4FF0820B8FEA89B1
:10311000FB898081806207C0EE89FF896083E8892E
:10312000F98980818064808381E090E0DF91CF9194
:103130001F910F91FF90EF900895CF93DF93EC01D3
:10314000888D8823C9F0EA89FB89808185FD05C0C7
:10315000A889B9898C9186FD0FC00FB607FCF5CF01
:10316000808185FFF2CFA889B9898C9185FFEDCF49
:10317000CE010E943518E7CFDF91CF9108950E94CC
:103180002B1881110C94BC0E08950F931F9300E02F
:1031900010E32FEF30E040E850E060E470E00E9480
:1031A000000F1F910F9108950F931F9300E01FEFE1
:1031B00020E030E040E050E06FEF70E00E94000F50
:1031C0001F910F9108950F931F930FEF10E020E0D0
:1031D00030E040E050E06FEF70E00E94000F1F9180
:1031E0000F9108950F931F93CF93DF93EC01888184
:1031F0009981009729F02A813B812617370788F4A7
:103200008B016F5F7F4F0E94BF32009761F09983FF
:1032100088831B830A832C813D81232B11F4FC01BD
:10322000108281E001C080E0DF91CF911F910F916A
:103230000895CF93DF93EC0188819981009711F075
:103240000E942732198218821D821C821B821A82D8
:10325000DF91CF910895EF92FF920F931F93CF9339
:10326000DF93EC017B018A01BA010E94F2188111FF
:1032700004C0CE010E94191907C01D830C83B70139
:10328000888199810E949B33CE01DF91CF911F915C
:103290000F91FF90EF900895FC01808191810C9433
:1032A0002732EF92FF920F931F93CF93DF93EC019E
:1032B000198218821B821A821D821C826115710577
:1032C00009F18B01CB010E9483307C01BC01CE014E
:1032D0000E94F218811109C0CE01DF91CF911F9198
:1032E0000F91FF90EF900C941919FD82EC82B801B8
:1032F00088819981DF91CF911F910F91FF90EF907D
:103300000C947C30DF91CF911F910F91FF90EF9043
:103310000895CF93DF9300D000D0CDB7DEB761150D
:1033200071058105910579F09B01AC0169833A83B0
:103330004B835C830E942D2F29813A814B815C81D4
:103340000E94EC3003C060E070E0CB010F900F9062
:103350000F900F90DF91CF9108951F920F920FB6AB
:103360000F9211242F933F934F935F936F937F930B
:103370008F939F93AF93BF93EF93FF9381E391E07C
:103380000E943518FF91EF91BF91AF919F918F915E
:103390007F916F915F914F913F912F910F900FBE51
:1033A0000F901F9018951F920F920FB60F92112435
:1033B0002F938F939F93EF93FF93E0914101F091AF
:1033C00042018081E0914701F091480182FD12C0E5
:1033D000908180914A018F5F8F7320914B018217FA
:1033E00051F0E0914A01F0E0EF5CFE4F958F809341
:1033F0004A0101C08081FF91EF919F918F912F91A0
:103400000F900FBE0F901F901895CF93DF9390E011
:10341000FC01EE58FD4F2491FC01E057FD4F8491D3
:10342000882361F190E0880F991FFC01EC5AFD4F51
:10343000C591D491FC01EA57FD4FA591B49161115A
:1034400009C09FB7F8948881209582238883EC91E6
:103450002E230BC0623061F49FB7F8943881822F1D
:10346000809583238883EC912E2B2C939FBF06C0DD
:103470008FB7F894E8812E2B28838FBFDF91CF91EF
:1034800008953FB7F89480912D0190912E01A0915D
:103490002F01B091300126B5A89B05C02F3F19F030
:1034A0000196A11DB11D3FBFBA2FA92F982F8827C4
:1034B000820F911DA11DB11DBC01CD0142E0660F1F
:1034C000771F881F991F4A95D1F708951F920F9271
:1034D0000FB60F9211242F933F938F939F93AF9327
:1034E000BF938091CE019091CF01A091D001B09176
:1034F000D10130912C0123E0230F2D3720F40196C8
:10350000A11DB11D05C026E8230F0296A11DB11D06
:1035100020932C018093CE019093CF01A093D001F2
:10352000B093D10180912D0190912E01A0912F0196
:10353000B09130010196A11DB11D80932D01909392
:103540002E01A0932F01B0933001BF91AF919F91B5
:103550008F913F912F910F900FBE0F901F90189554
:10356000EF92FF920F931F93DC0117968C911797A0
:10357000882381F0489FA0011124452F289F9001A6
:103580001124232F089F80011124012FE89E700130
:103590001124EF2C1D968C911D971A969C911A97C9
:1035A0001896ED91FC911997891308C0CB01880FEB
:1035B000991F680F791F6E0F7F1F0AC0660F771F54
:1035C000660F771F6E0F7F1FFB01E80FF11DE08272
:1035D0001A968C911A97FB01E80FF11D40831B96F8
:1035E0008C911B97FB01E80FF11D20831C968C9199
:1035F000FB01E80FF11D00831F910F91FF90EF90E9
:1036000008952F923F924F925F926F927F928F9286
:103610009F92AF92BF92CF92DF92EF92FF920F9361
:103620001F93CF93DF93CDB7DEB72A970FB6F894E9
:10363000DEBF0FBECDBF9A8789875C0108E9A01A5B
:103640000EEFB00AF5018081E82EF12CFE82ED82AA
:10365000A985BA8504E1809FA00DB11D1124A5594B
:10366000BE4F4D905D906D907C90872D9927AA2735
:10367000BB27282F730100271127E982FA820B83C9
:103680001C838980FF24E72CD62CC52C2C2C342DB0
:10369000C41408F4C42CC81420F02C1528F48C2D64
:1036A00003C0281508F4898190E00E94783169836D
:1036B00044E10D811E81409FC001419F900D112466
:1036C000E985FA85E80FF91FE758FE4FC080D180E1
:1036D000462E512C612C712C622F70E07E836D83FD
:1036E000832F90E098878F83312C912CF501808176
:1036F000E984FA8404E1089FE00CF11C1124F7012D
:10370000E558FE4F608171816C157D05D8F1F98017
:10371000FF2029F0C301B2010E94891903C060E0B3
:1037200070E0CB01E985FA8522813381C216D30688
:1037300028F5AB01ED80FE80E61AF70AF7FE02C01D
:10374000E12CF12C0F811885041B150B17FF02C00B
:1037500000E010E09101241B350B37FF02C020E090
:1037600030E0B401641B750BAB0177FF02C040E091
:1037700050E0B60189859A850E94B01A7FEFC71A7A
:10378000D70AB4CFD701A958BE4F32978081918113
:10379000681B790B6F5F7F4F8D919C910E94643104
:1037A000CB012A960FB6F894DEBF0FBECDBFDF91D6
:1037B000CF911F910F91FF90EF90DF90CF90BF902E
:1037C000AF909F908F907F906F905F904F903F90C1
:1037D0002F90089561E070E00C94011B66E070E0AA
:1037E0000C94011B63E070E00C94011B4F925F92FC
:1037F0006F927F928F929F92AF92BF92CF92DF9201
:10380000EF92FF920F931F93CF93DF93DC011296F9
:103810008D919C9113976817790708F0F9C01D9650
:103820008C911D971A96EC901A971896ED91FC9131
:10383000199717968C901797482F50E01B961C915C
:103840001B971C960C91EB018E1164C0CC0FDD1FF1
:10385000C60FD71FCE0FDF1F882009F443C0912C5D
:10386000A12CB12CFE01E40FF51F608170E0762FD2
:103870006627072E000C880B990BA50194010E9466
:10388000CA30390155244424FE01E10FF11D608145
:1038900070E0762F6627072E000C880B990BA50188
:1038A00094010E94CA30B42FA32F922F882773014E
:1038B0006201C82AD92AEA2AFB2AC00FD11D6881D1
:1038C00070E0762F6627072E000C880B990BA50158
:1038D00094010E94CA30C701B601622B732B842B5E
:1038E000952B99C0FE01E40FF51F2081FE01E10F29
:1038F000F11D6081862F90E0A0E0B0E0BA2FA92FE3
:10390000982F8827A22BC00FD11D2881BC01CD0183
:10391000622B81C0CC0FDD1FCC0FDD1FCE0FDF1F50
:10392000F12C882009F458C0912CA12CB12CFE0157
:10393000E40FF51F608170E0762F6627072E000CDC
:10394000880B990BA50194010E94CA30722E66243F
:1039500055244424FE01EE0DFF1D608170E0762F9A
:103960006627072E000C880B990BA50194010E9475
:10397000CA307901DD24CC24C428D528E628F728CC
:10398000FE01E00FF11D608170E0762F6627072EA3
:10399000000C880B990BA50194010E94CA30C22A21
:1039A000D32AE42AF52AC10FD11D688170E0762F51
:1039B0006627072E000C880B990BA50194010E9425
:1039C000CA30B42FA32F922F8827BC01CD016C29B8
:1039D0007D298E299F291FC0FE01E40FF51F20813C
:1039E000FE01EE0DFF1D6081862F90E0A0E0B0E0AB
:1039F000DC0199278827B22BFE01E00FF11D208101
:103A0000822BC10FD11D2881BC01CD01722B03C0B7
:103A100060E070E0CB01DF91CF911F910F91FF909B
:103A2000EF90DF90CF90BF90AF909F908F907F905E
:103A30006F905F904F9008958F929F92AF92BF9238
:103A4000CF92DF92EF92FF920F931F93CF93DF936A
:103A5000FC01828193816817790708F04CC04A0104
:103A6000AA24BB24B82DC32ED42EE52EFF24AC2DC2
:103A7000922F8781882361F0889E40011124B92DFF
:103A8000C89E60011124AD2D289FE00111249D2FB7
:103A9000D584C285E084F184DC1208C09B01220F2A
:103AA000331F620F731F6E0D7F1D16C0660F771FC9
:103AB000660F771F6E0D7F1D052F112722273327D5
:103AC000EB01CD0DD11D882329F0089F9001112411
:103AD000232F01C0202F28838285EB01C80FD11D21
:103AE000B8838385EB01C80FD11DA8838485FB01B2
:103AF000E80FF11D9083DF91CF911F910F91FF90FF
:103B0000EF90DF90CF90BF90AF909F908F900895EF
:103B10002F923F924F925F926F927F928F929F92DD
:103B2000AF92BF92CF92DF92EF92FF920F931F93CB
:103B3000CF93DF93CDB7DEB72A970FB6F894DEBFE9
:103B40000FBECDBF1C014A015B012801390100E015
:103B500010E09C0128593E4F38872F83AF81B885EC
:103B60002C91822F90E0F10134E1329FE00DF11DA4
:103B70001124FE83ED83E558FE4F408151815A8325
:103B80004983ED81FE81E758FE4F608171817C831E
:103B90006B834F5F5F4FDA01A61BB70BBA87A9870C
:103BA0004EE0489F9001499F300D11240A171B07D2
:103BB00008F055C0220D331DF901EE5CFD4F8081E8
:103BC0009181A281B381BC01CD01600F711F811D64
:103BD000911D26E030E040E050E00E94CA30ED81C7
:103BE000FE81E358FE4F623071058105910578F43E
:103BF0008081882329F06B817C81600F711F04C054
:103C000069817A81601B710BA501940122C0643027
:103C100071058105910578F48081882329F06B81F5
:103C20007C81600F711F04C069817A81601B710BF8
:103C3000A30192010EC08081882329F06B817C81D1
:103C4000600F711F04C069817A81601B710BA7012D
:103C50009601C1010E941C1D0F5F1F4F7FCF220ED6
:103C6000331EBEEC2B1ABDEF3B0AF101808191811E
:103C7000A281B381BC01CD016F5F7F4F8F4F9F4FFA
:103C800026E030E040E050E00E94CA30D1016D9360
:103C90007D938D939C931397ED81FE81E958FE4FA0
:103CA0008081918169857A850E946431CB012A9651
:103CB0000FB6F894DEBF0FBECDBFDF91CF911F913D
:103CC0000F91FF90EF90DF90CF90BF90AF909F90BB
:103CD0008F907F906F905F904F903F902F900895BE
:103CE000CF92DF92EF92FF920F931F93C12CD12CB2
:103CF00076010FEF1FEF2FEF30E040E050E06FEF65
:103D000070E00E94881D1F910F91FF90EF90DF904F
:103D1000CF900895CF92DF92EF92FF920F931F936F
:103D2000FC01E859FE4F2081AC0134E1239F400D96
:103D3000511D1124FA01ED58FE4FC080D180E28060
:103D4000F38034970081118122813381349740813F
:103D50005181628173810E94881D1F910F91FF9094
:103D6000EF90DF90CF9008952F923F924F925F9205
:103D70006F927F928F929F92AF92BF92CF92DF927B
:103D8000EF92FF920F931F93CF93DF9300D000D059
:103D9000CDB7DEB79C838B834A015B010E94C50FC0
:103DA0002B803C8028E9221A2EEF320AF101808113
:103DB000EB81FC8124E1829FE00DF11D1124E75885
:103DC000FE4F008111810F5F1F4FF1018081EB8158
:103DD000FC8124E1289FE00DF11D1124E558FE4FE0
:103DE000808191810817190708F044C0B80161501B
:103DF00071098B819C810E94F61B6B017C01B801CB
:103E00008B819C810E94F61B2B013C01C80101960D
:103E10009A838983BC018B819C810E94F61B42E0BE
:103E2000F694E794D794C7944A95D1F7EFE3CE225E
:103E3000DE22EE22FE22DC01CB0152E0B695A795F0
:103E4000979587955A95D1F78F739F73AF73BF730B
:103E50008C0D9D1DAE1DBF1D9C01AD01240D351D9A
:103E6000461D571DB8018B819C810E941C1D098134
:103E70001A81ABCFEB81FC81868900E010E08111D3
:103E80008BC024E1422E512C3AE0C32ED12CE12CE0
:103E9000F12CF10180812B813C81F4E1F89F200D10
:103EA000311D1124F901E558FE4F80819181019661
:103EB000329720813181821B930B8431910520F050
:103EC000B2010E94643102C061E070E0061717077A
:103ED00070F50E942D2FA70196010E94EC30672BF0
:103EE000682B692B09F5F10180812B813C8144E12C
:103EF000489F200D311D1124F901E758FE4F6080C5
:103F000071803296608171816F5F7F4F661977098A
:103F100080E090E00E948919660D771DA50194014B
:103F20008B819C810E941C1D0F5F1F4FB2CFF1013E
:103F300080812B813C81F4E18F9F200D311D112464
:103F4000F901E958FE4FD901A558BE4F6D917C91FA
:103F500011976F5F7F4F12978D919C91681B790B22
:103F6000808191810E946431CB010F900F900F905E
:103F70000F90DF91CF911F910F91FF90EF90DF9005
:103F8000CF90BF90AF909F908F907F906F905F90F9
:103F90004F903F902F90089584E1782E9AE0C92E9B
:103FA000D12CF10180812B813C81789E200D311D27
:103FB0001124F901E758FE4FE080F180329620810C
:103FC00031812F5F3F4F2E193F092A30310528F0EC
:103FD000C901B6010E94643102C061E070E00617B9
:103FE000170708F0A4CFB90180E090E00E9489197A
:103FF0006E0D7F1DA50194018B819C810E941C1D6B
:104000000F5F1F4FCECFCF93DF93EC010E942D2F78
:1040100020E031E040E050E00E94EC30CE010E9410
:104020009F10AB01BC01CE01DF91CF910C94B41E67
:10403000FC01E859FE4F2081FC0134E1239FE00D93
:10404000F11D1124E559FE4F408151816281738138
:104050000C94B41EEF92FF920F931F93CF93DF93B4
:10406000EC010E94C50F8E0108591E4FF801808196
:10407000682F70E09E0144E1849F200D311D1124C2
:10408000C901F901E358FE4F208172972223C1F044
:104090002081318142815381DC01A558BE4F8EE0E1
:1040A000869FF001879FF00D1124EC0FFD1FEE5C41
:1040B000FD4F6D917C9180819181681B790B17C0B8
:1040C0002081318142815381EEE0E69FD001E79F5C
:1040D000B00D1124AC0FBD1FAE5CBD4FFC01E75805
:1040E000FE4F6D917C9180819181680F791FCE0187
:1040F0000E941C1DF80180817E01F4E18F9FE00C7D
:10410000F11C1124F701E558FE4F008111810F5F6A
:104110001F4F329720813181021B130B2EE0829FAB
:10412000C00DD11D1124CE5CDD4F88819981AA81FB
:10413000BB81BC01CD016F5F7F4F8F4F9F4F9801B7
:1041400040E050E00E94CA30688379838A839B8371
:10415000F701E958FE4F80819181B8010E946431D6
:10416000CB01DF91CF911F910F91FF90EF900895B8
:104170008F929F92AF92BF92CF92DF92EF92FF9277
:104180000F931F93CF93DF93EC010E94C50F8E0115
:1041900008591E4FF8018081FE019EE0899FE00DC5
:1041A000F11D1124EE5CFD4FC080D180E280F380D0
:1041B000FE0194E1899FE00DF11D1124DF01A55856
:1041C000BE4F8D919C91119712976D917C91119793
:1041D000AC014F5F5F4F461B570B4A01A12CB12C1E
:1041E0001496E559FE4F2C91C814D904EA04FB0437
:1041F00088F4222341F02081318142815381BC0126
:104200006C197D0922C020813181428153816C0D5E
:104210007D1D1BC0DA01AA0FBB1F222359F020818C
:104220003181428153810296BC016C0D7D1D6A1B58
:104230007B0B0BC02081318142815381FB0132977E
:10424000BF016C197D096A0F7B1FCE010E941C1DE6
:10425000F80180817E01F4E18F9FE00CF11C1124B4
:10426000D701A558BE4FF701E758FE4F0D911C919D
:1042700020813181021B130B000F111F9EE0899FCB
:10428000C00DD11D1124CE5CDD4F88819981AA819A
:10429000BB81BC01CD016F5F7F4F8F4F9F4F980156
:1042A00040E050E00E94CA30688379838A839B8310
:1042B000F701E958FE4FB8016E5F7F4F8081918111
:1042C0000E946431CB01DF91CF911F910F91FF903C
:1042D000EF90DF90CF90BF90AF909F908F90089518
:1042E000BF92CF92DF92EF92FF920F931F93CF93E3
:1042F000DF93EC017C0128E9E21A2EEFF20AF701C4
:1043000080819E0144E1849F200D311D1124D9013B
:10431000A558BE4FF901E758FE4F0D911C918081C1
:104320009181081B190B24E1B22EF7018081011540
:10433000110559F19E01B89E200D311D1124C901AE
:10434000F901E358FE4F2081222349F03297C080C3
:10435000D180C01AD10AB6016F5F7F4F0AC0FC013D
:10436000E758FE4FC080D180C00ED11EB60161500B
:104370007109CE010E94F61B9B01AC01B601CE0172
:104380000E941C1D01501109D0CF9EE0D92E8E0134
:10439000D89E000D111D1124F801EE5CFD4F8081A7
:1043A0009181A281B381892B8A2B8B2BB9F5025C79
:1043B0001D4FF8016081CE010E94761090E0F80157
:1043C00091838083F70180818E01F4E18F9F000D3E
:1043D000111D1124F801E358FE4F2081D89EC00121
:1043E00011248C0F9D1FFC01E25CFD4F6081CE010A
:1043F000222341F00E949F109B01AC01F801E55877
:10440000FE4F07C00E949F109B01AC01F801E758C6
:10441000FE4F60817181CE010E941C1DF7018081D9
:10442000282F30E0FE014EE0849FE00DF11D1124A5
:10443000EE5CFD4F81E090E0A0E0B0E04081518172
:1044400062817381452B462B472B19F080E090E069
:10445000DC0180839183A283B38344E1429FC00146
:10446000439F900D1124C80FD91FFE01E958FE4F3C
:10447000DE01A558BE4F6D917C916F5F7F4FC7588D
:10448000DE4F88819981681B790B808191810E9420
:104490006431CB01DF91CF911F910F91FF90EF908D
:1044A000DF90CF90BF90089590E0FC01E25AFD4F5D
:1044B0002491FC01EE58FD4F3491FC01E057FD4F73
:1044C000E491EE23B9F1222339F1233091F038F44D
:1044D0002130A9F0223001F584B58F7D12C027303C
:1044E00091F02830A1F02430B9F4809180008F7DC4
:1044F00003C0809180008F77809380000DC084B5C9
:104500008F7784BD09C08091B0008F7703C0809100
:10451000B0008F7D8093B000F0E0EE0FFF1FEA57F0
:10452000FD4FA591B4918FB7F894EC9130953E234F
:104530003C938FBF0895009769F0FC010190002023
:10454000E9F73197AF01481B590BBC0181E391E0BA
:104550000C94BF1780E090E0089587E291E00C94FE
:104560009B220F931F93CF93DF938C01C0E0D0E089
:10457000F801EC0FFD1F6491662371F0E0913101A9
:10458000F09132010190F081E02D81E391E00995F5
:10459000892B11F02196ECCFCE01DF91CF911F91A5
:1045A0000F910895FC01448155818091DA01909129
:1045B000DB018417950780F08091D6019091D70197
:1045C000009751F0608171816115710529F00E9499
:1045D000A23321E0892B09F020E0822F08958F92E9
:1045E0009F92AF92BF920F931F93CF93DF93CDB75C
:1045F000DEB7A1970FB6F894DEBF0FBECDBF19A2EC
:10460000423008F44AE08E010F5D1F4F842E912C3A
:10461000A12CB12CA50194010E94CA30E62FB9014A
:10462000CA0101501109EA3014F4E05D01C0E95CEF
:10463000D801EC93232B242B252B61F7C8010E9472
:104640009B22A1960FB6F894DEBF0FBECDBFDF91BF
:10465000CF911F910F91BF90AF909F908F90089531
:10466000CF92DF92EF92FF920E94411A6B017C0180
:104670000E94411ADC01CB018C199D09AE09BF09CA
:10468000883E9340A105B10598F3FF90EF90DF902D
:10469000CF9008950F931F93CF93DF93CDB7DEB7DD
:1046A00029970FB6F894DEBF0FBECDBF8091E4010D
:1046B0009091E501892B09F4A2C00E94411A009152
:1046C000EA011091EB012091EC013091ED01DC0148
:1046D000CB01801B910BA20BB30B8C329140A10537
:1046E000B10558F3F8948091E0019091E1019A832B
:1046F0008983E091E401F091E501DF011196808169
:1047000089879091DC01E091EE01F091EF018091B9
:10471000F001992309F42EC09081982B98879081FD
:10472000809589238F838F818C8388E08B83588544
:104730006F8149853B812C8189819A81508347FD16
:10474000252F3A952083262F39F0441F00C0000002
:104750006083000000C0F2CF38E04D91608300001C
:10476000019761F7F093EF01E093EE0149873B83F6
:104770002C8338C09081982B9887908180958923CD
:104780008F838F818E8388E08D8358856F814985E3
:104790003D812E8189819A81508347FD252F00C05C
:1047A00000C0208300C000C000C000C000C0608303
:1047B0000000262F3A9541F0441F000000C000C0C1
:1047C00000C000C000C0E8CF38E04D9100C0608359
:1047D00000C0019709F7F093EF01E093EE014987DC
:1047E0003D832E839A83898378940E94411A609333
:1047F000EA017093EB018093EC019093ED0129960F
:104800000FB6F894DEBF0FBECDBFDF91CF911F91E1
:104810000F9108951F93CF93DF938093F30111E0DD
:10482000180F2091E3011217A1F1C091E401D0917A
:10483000E5012150B9F08F3F59F430E040E050E0FD
:104840006FEF7FEF80E090E00E94EC30B9010CC088
:10485000812F90E0982F88270197622F70E00E94A7
:10486000643102C060E070E0FE014091E0015091CF
:10487000E101CF018C1B9D0B8417950740F440810B
:10488000469FC001479F900D11249193EECF109346
:10489000E3010E944A23DF91CF911F910C943023B2
:1048A000DF92EF92FF920F931F93CF93DF937C01E0
:1048B000EB016230710520F48B01C2E0D0E002C050
:1048C00002E010E0F7011182108213821282158239
:1048D000148240E050E069E271E0C7010E942B19A8
:1048E0008091DA019091DB010817190758F58C17B0
:1048F0009D0708F4EC01E091D601F091D701EC0F8F
:10490000FD1FD08010826091D6017091D701600F99
:10491000711F6115710561F0FB0101900020E9F73D
:104920003197AF01461B570BC7010E942B1903C0DB
:10493000C7010E9419198091D6019091D701C80F23
:10494000D91FD882C701DF91CF911F910F91FF909E
:10495000EF90DF900895CF93DF930E94B122EC0196
:104960000E94AD228C0F9D1FDF91CF910895CF93B0
:10497000DF93BC0180E090E04AE00E94EF22EC016E
:104980000E94AD228C0F9D1FDF91CF910895209141
:10499000DA013091DB01DC0114964D915C911597A1
:1049A0002417350721F5E091D601F091D7016D91DB
:1049B0007C91309719F06115710599F461157105B5
:1049C00049F0232BB1F0FB01808190E09195819516
:1049D00091090AC0309769F0232B59F0808190E04B
:1049E00003C0CF010E94923321E0892B19F020E00F
:1049F00001C021E0822F0895CF93DF93682F70E0EC
:104A000080E090E04AE00E94EF22EC010E94AD229B
:104A10008C0F9D1FDF91CF9108952F923F924F925F
:104A20005F926F927F928F929F92AF92BF92CF923E
:104A3000DF92EF92FF920F931F93CF93DF938C013E
:104A40004A015B013C0188E9681A8EEF780AF3019C
:104A50008081E801FEE08F9FC00DD11D1124CA5C4A
:104A6000DD4F688179818A819B8123E030E040E0DD
:104A700050E00E94CA30688379838A839B83C0E0B8
:104A8000D0E084E1282E93E0492E512C2EE0322EE6
:104A9000F3018081282F30E0F801289EE00DF11D00
:104AA0001124DF01A558BE4FCD90DC9011971297CD
:104AB000ED90FC90B6016F5F7F4F6E197F09C617AE
:104AC000D707D8F5CE01B2010E946431AC0160E095
:104AD00070E0329ED001339EB00D1124A00FB11FA3
:104AE000AA5CBD4F8D919D910D90BC91A02DE35876
:104AF000FE4F481759076A077B0769F480818823AE
:104B000021F0B6016C1B7D0B03C0BE016E0D7F1D35
:104B1000A50194010DC08081882321F0B6016C1B92
:104B20007D0B03C0BE016E0D7F1D20E030E0A901AA
:104B3000C8010E941C1D2196ABCFE958FE4F808111
:104B400091810E946431CB01DF91CF911F910F9130
:104B5000FF90EF90DF90CF90BF90AF909F908F909D
:104B60007F906F905F904F903F902F90089586EDCB
:104B700091E00E944C198091E4019091E501009729
:104B800011F00E9427328091E20187FD03C060E0AE
:104B90000C94051A0895CF93DF93CDB7DEB728970D
:104BA0000FB6F894DEBF0FBECDBF789484B5826097
:104BB00084BD84B5816084BD85B5826085BD85B5C1
:104BC000816085BD80916E00816080936E0010923F
:104BD00081008091810082608093810080918100BA
:104BE000816080938100809180008160809380004B
:104BF0008091B10084608093B1008091B0008160A9
:104C00008093B00080917A00846080937A008091D4
:104C10007A00826080937A0080917A00816080932C
:104C20007A0080917A00806880937A001092C100A7
:104C3000E0914101F091420182E08083E0913D01E9
:104C4000F0913E011082E0913F01F091400180E13E
:104C5000808310924901E0914501F091460186E080
:104C60008083E0914301F0914401808180618083E1
:104C7000E0914301F0914401808188608083E0915C
:104C80004301F0914401808180688083E091430179
:104C9000F091440180818F7D80838CE8EEE0F4E028
:104CA000DF011D928A95E9F78091E20187FD07C037
:104CB00061E00E94051A8091E2010E94542211E0F5
:104CC0001093DD018091F3010E940A240E944A237F
:104CD0008FEF0E940A2480914503811102C0109336
:104CE000450310925603109255038DE590E0909382
:104CF0005803809357038DE08093460388E893E13F
:104D00009093540380935303109259038FEF9BE7C2
:104D1000A0E0B0E08093470390934803A093490339
:104D2000B0934A038CE8EEE0F4E0DF011D928A952F
:104D3000E9F781E08093F10180E090E00E94A430E7
:104D4000811102C00E94661780E090E00E94A430AA
:104D5000882309F460C088ECE6E4F3E0DF011D92EB
:104D60008A95E9F78CE8EEE0F4E0DF011D928A9580
:104D7000E9F71092440381E08093450387E090E0D7
:104D8000909358038093570388EE93E090935403D5
:104D90008093530380E090E0AFEFB0E0809347034F
:104DA00090934803A0934903B0934A03BE01695FFF
:104DB0007F4F80E090E00E945C178F810E940A2460
:104DC000BE016F5F7F4F81E090E00E945C17898198
:104DD0008093450302E010E0E12CF12C8091450323
:104DE00090E0E816F906BCF4F801EC5BFC4F5F01BB
:104DF0004801F4E18F0E911CC8010E94A430D50136
:104E00008D935D010F5F1F4F08151905A9F7BFEFBF
:104E1000EB1AFB0AE3CF8AE690E00E94AB240E94E3
:104E2000AD2204EF11E0812C912C54014AE0C50120
:104E3000B4010E94EF2288E690E00E94B122F801BE
:104E4000819191918F010E94AB24FFEF8F1A9F0AED
:104E5000AF0ABF0A28E382169104A104B10431F716
:104E60000E94AD228FE991E00E94AB240E94AD2206
:104E700085E891E00E94AB240E94AD228AE691E091
:104E80000E94AB248FE491E00E94AB248FE291E07A
:104E90000E94AB240E94AD2289E191E00E94AB24E4
:104EA00083E091E00E94AB2488EE90E00E94AB2466
:104EB0000E94AD2283EC90E00E94AB240E94AD22C0
:104EC0000E94AD2282EB90E00E94AB248BE890E040
:104ED0000E94AB2480E090E00E94A4300E94FC2459
:104EE0007EE0E72EE4E1DE2E0EE014E08091F10199
:104EF000811105C08091F201882309F493C08FB716
:104F0000F8948090CE019090CF01A090D001B09005
:104F1000D1018FBFF12C20E080914503F81608F0F5
:104F200079C0F09244038F2D90E0E89EF001E99E55
:104F3000F00D1124EA5EFB4F408151816281738143
:104F4000481559056A057B0528F03091F201332395
:104F500009F45EC0D89EF001D99EF00D1124EA5BE1
:104F6000FC4F208130E0F901EE0FFF1FEE0FFF1F15
:104F7000EA59FD4F408151812E5D3F4FCA01959501
:104F80008795220F331F220F331FF901E452FE4F82
:104F900040FF0AC0DC01A452BE4F4D915C912081BC
:104FA0003181FA01E20FF31F0190F081E02D84526C
:104FB0009E4F09952091440330E0E29EF001E39E6C
:104FC000F00D1124EA5EFB4F8A30910514F48AE05B
:104FD00090E0092E000CAA0BBB0B880D991DAA1D91
:104FE000BB1D80839183A283B383E29EF001E39E85
:104FF000F00D1124EE5EFB4F80819181A281B3817F
:105000000196A11DB11D80839183A283B38321E00A
:10501000F39482CF222321F00E9430230E944A235E
:105020001092F20180912A01882309F450C261E5AF
:1050300072E0CE0101960E945119CE0101960E94A4
:10504000C724F82ECE0101960E944C19FF20A1F032
:105050008091F30190E049968F3F910519F014F08B
:105060008FEF90E00E940A2481E392E00E94B12237
:105070008091F3010E94FC246EE272E0CE01019661
:105080000E945119CE0101960E94C724F82ECE012C
:1050900001960E944C19FF20C1F08091F30190E02D
:1050A000499797FD07C08F3F910529F024F08FEFB6
:1050B00090E001C080E00E940A248EE092E00E940D
:1050C000B1228091F3010E94FC246BE072E0CE01DA
:1050D00001960E945119CE0101960E94D222F82E0B
:1050E000CE0101960E944C19FF2009F16091DA016E
:1050F0007091DB01CE0101960E94502489819A8132
:10510000009719F00E944C3001C060E0CE0101967A
:1051100068870E944C196885862F0E940A2488E0BF
:1051200092E00E94B1228091F3010E94FC2465E08C
:1051300072E0CE0101960E945119CE0101960E94A3
:10514000C724F82ECE0101960E944C19FF2011F1C0
:10515000E0914403DE9EF0011124ED5AFC4F808162
:1051600091810A968A30910510F48AE090E02CE84B
:10517000D8011D922A95E9F7909354038093530325
:105180008AEE91E00E94B1228091530390915403E2
:105190000E94B72467EE71E0CE0101960E9451197A
:1051A000CE0101960E94C724F82ECE0101960E94DE
:1051B0004C19FF2011F1E0914403DE9EF00111240F
:1051C000ED5AFC4F808191810A978A30910510F445
:1051D0008AE090E02CE8F80111922A95E9F7909383
:1051E0005403809353038CEC91E00E94B122809190
:1051F0005303909154030E94B72469EC71E0CE01EF
:1052000001960E945119CE0101960E94D222F82ED9
:10521000CE0101960E944C19FF2089F16091DA01BC
:105220007091DB01CE0101960E94502489819A8100
:10523000009729F00E944C304B015C0103C0812C87
:10524000912C5401CE0101960E944C198CE8D80192
:105250001D928A95E9F7C4018A30910510F48AE01D
:1052600090E0909354038093530386EC91E00E9466
:10527000B12280915303909154030E94B72463ECB0
:1052800071E0CE0101960E945119CE0101960E9453
:10529000D222F82ECE0101960E944C19FF2009F46B
:1052A00044C06091DA017091DB01CE0101960E9449
:1052B000502489819A81009719F00E944C3001C0D6
:1052C00060E0CE01019668870E944C198CE8F801D5
:1052D00011928A95E9F76885683308F067E360936F
:1052E00046038091F3010E940A2481EC91E00E9420
:1052F000B1226091460370E080E090E04AE00E94B5
:10530000EF228CE191E00E949B22E0914603E8337A
:1053100040F4F0E0EE0FFF1FEC50FE4F80819181D2
:1053200002C086EA91E00E94AB246EEB71E0CE01F0
:1053300001960E945119CE0101960E94D222F82EA8
:10534000CE0101960E944C19FF2009F499C060918A
:10535000DA017091DB01CE0101960E9450248D810B
:105360009E81892B21F089819A81009721F41092E6
:105370002B018BE291E040E150E060E070E00E94A0
:105380003B2F4B015C01CE0101960E944C198CE829
:10539000D8011D928A95E9F78092470390924803BD
:1053A000A0924903B0924A038091F3010E940A241B
:1053B0008BEB91E00E94B12288EB91E00E94B12238
:1053C0008091470390914803A0914903B0914A030B
:1053D0000097A041B10520F486EB91E00E94B12234
:1053E0008091470390914803A0914903B0914A03EB
:1053F0000097A140B10520F484EB91E00E94B12216
:105400008091470390914803A0914903B0914A03CA
:1054100081159041A105B10520F482EB91E00E9435
:10542000B1228091470390914803A0914903B09124
:105430004A038F3F9105A105B10509F020F480EBE7
:1054400091E00E94B1228091470390914803A0917E
:105450004903B0914A034097A105B10520F48EEAB3
:1054600091E00E94B12260914703709148038091BE
:10547000490390914A0340E10E94EF220E94AD222D
:105480006BEA71E0CE0101960E945119CE0101969E
:105490000E94D222F82ECE0101960E944C19FF20C4
:1054A00061F00E94661787EA91E00E94B12280E2D3
:1054B00091E00E949B220E94AD2240E050E069E210
:1054C00071E086ED91E00E942B1910922A010E9452
:1054D000BF180CCDCF93DF9310923401109233019B
:1054E00088EE93E0A0E0B0E0809335019093360120
:1054F000A0933701B09338018EE091E09093320190
:105500008093310185EC90E090933E0180933D01C2
:1055100084EC90E09093400180933F0180EC90E018
:10552000909342018093410181EC90E0909344017B
:105530008093430182EC90E0909346018093450173
:1055400086EC90E0909348018093470110924A01C5
:1055500010924B0110924C0110924D011092DD01FE
:105560001092E3011092EA011092EB011092EC010B
:105570001092ED0181E08093E9018093E6011092A1
:10558000E70192E09093E8018093DC01CAE1D1E069
:10559000D093E101C093E0018AE191E00E94923151
:1055A0009093E5018093E401009761F0DC01FE0136
:1055B0001D923197E9F78EE590E09093DF0180939B
:1055C000DE0108C01092E1011092E0011092DF01AB
:1055D0001092DE0187E08093E2018091DD01882353
:1055E00039F061E087E00E94051A87E00E945422AA
:1055F000E7E9F2E0E491F0E0EE0FFF1FEA57FD4F1C
:10560000859194919093EF018093EE01E9E7F2E0A8
:10561000E491E093F0011092440381E0809345030C
:1056200088ECE6E4F3E0DF011D928A95E9F780E07B
:1056300090E0AFEFB0E08093470390934803A093CE
:105640004903B0934A0388EE93E090935403809308
:10565000530380ED9BE09093650280936402109267
:1056600067021092660220EB3BE0309369022093C0
:10567000680210926B0210926A0229ED3AE03093B0
:10568000710220937002109273021092720229EB41
:105690003AE03093750220937402109277021092D0
:1056A000760228E93AE0309379022093780210924A
:1056B0007B0210927A0227E73AE030937D02209332
:1056C0007C0210927F0210927E022BE836E130932A
:1056D00081022093800210928302109282022EEBAC
:1056E00035E1309385022093840210928702109254
:1056F000860220E135E130938902209388021092DE
:105700008B0210928A022DEB34E130938D022093AC
:105710008C0210928F0210928E022BE434E13093AF
:1057200091022093900210929302109292022FEC19
:1057300033E13093950220939402109297021092D5
:10574000960225EF38E03093990220939802109248
:105750009B0210929A0223E238E030939D0220933C
:105760009C0210929F0210929E0224E93DE0309329
:10577000A1022093A0021092A3021092A20222E89A
:105780003DE03093A5022093A4021092A70210924C
:10579000A60226EA33E13093A9022093A8021092D0
:1057A000AB021092AA0221E138E03093B1022093BB
:1057B000B0021092B3021092B20221E933E13093A9
:1057C000B5022093B4021092B7021092B60224E6FA
:1057D00030E13093B9022093B8021092BB021092CC
:1057E000BA022CE733E13093BD022093BC02109241
:1057F000BF021092BE0229E836E03093C102209326
:10580000C0021092C3021092C2022EEA3CE0309312
:10581000C5022093C4021092C7021092C60221E171
:105820003CE03093C9022093C8021092CB02109240
:10583000CA022FE83BE03093CD022093CC021092B5
:10584000CF021092CE022BEE36E13093D10220939C
:10585000D0021092D3021092D2022EEB35E0309398
:10586000D5022093D4021092D7021092D60224E2DD
:1058700037E13093D9022093D8021092DB021092C4
:10588000DA0222E235E03093DD022093DC0210924E
:10589000DF021092DE022CE635E03093E102209325
:1058A000E0021092E3021092E2022BE233E1309325
:1058B000E5022093E4021092E7021092E60222E74A
:1058C00032E13093E9022093E8021092EB02109249
:1058D000EA0222E033E03093ED022093EC021092D2
:1058E000EF021092EE022AEF30E13093F1022093A2
:1058F000F0021092F3021092F2022EEB32E130939A
:10590000F5022093F4021092F7021092F60227E4B7
:1059100035E03093F9022093F8021092FB021092C6
:10592000FA0229E232E13093FD022093FC02109248
:10593000FF021092FE022AE236E130930103209327
:10594000000310920303109202032AEA3FE030930F
:10595000050320930403109207031092060323EE1D
:1059600038E1309309032093080310920B0310923F
:105970000A0320E731E230930D0320930C031092C9
:105980000F0310920E0328EB30E2309311032093A3
:10599000100310921303109212032AE230E23093A4
:1059A000150320931403109217031092160328E195
:1059B00030E2309319032093180310921B031092C6
:1059C0001A0323E030E230931D0320931C0310924E
:1059D0001F0310921E0324ED38E13093210320931E
:1059E0002003109223031092220325EC38E1309318
:1059F000350320933403109237031092360322EFBD
:105A00003BE1309325032093240310922703109247
:105A100026032EEE3BE130932903209328031092B6
:105A20002B0310922A032AEE3BE130932D0320939F
:105A30002C0310922F0310922E0320E73EE13093A7
:105A4000310320933003109233031092320324E980
:105A500035E0309339032093380310923B031092C2
:105A60003A032AE83EE130933D0320933C03109231
:105A70003F0310923E0390936D0280936C0210924C
:105A80006F0210926E029093AD028093AC0210925E
:105A9000AF021092AE0290934103809340031092A4
:105AA00043031092420384EA95E09093F5018093BA
:105AB000F4018EE995E09093F7018093F60187E970
:105AC00095E09093F9018093F8018CE895E090932C
:105AD000FB018093FA0189E795E09093FD018093A3
